{
  "_format": "hh-sol-artifact-1",
  "contractName": "AnimeNFT",
  "sourceName": "contracts/animeNFT.sol",
  "abi": [
    {
      "inputs": [],
      "stateMutability": "nonpayable",
      "type": "constructor"
    },
    {
      "anonymous": false,
      "inputs": [
        {
          "indexed": true,
          "internalType": "address",
          "name": "owner",
          "type": "address"
        },
        {
          "indexed": true,
          "internalType": "address",
          "name": "approved",
          "type": "address"
        },
        {
          "indexed": true,
          "internalType": "uint256",
          "name": "tokenId",
          "type": "uint256"
        }
      ],
      "name": "Approval",
      "type": "event"
    },
    {
      "anonymous": false,
      "inputs": [
        {
          "indexed": true,
          "internalType": "address",
          "name": "owner",
          "type": "address"
        },
        {
          "indexed": true,
          "internalType": "address",
          "name": "operator",
          "type": "address"
        },
        {
          "indexed": false,
          "internalType": "bool",
          "name": "approved",
          "type": "bool"
        }
      ],
      "name": "ApprovalForAll",
      "type": "event"
    },
    {
      "anonymous": false,
      "inputs": [
        {
          "indexed": true,
          "internalType": "address",
          "name": "from",
          "type": "address"
        },
        {
          "indexed": true,
          "internalType": "address",
          "name": "to",
          "type": "address"
        },
        {
          "indexed": true,
          "internalType": "uint256",
          "name": "tokenId",
          "type": "uint256"
        }
      ],
      "name": "Transfer",
      "type": "event"
    },
    {
      "inputs": [
        {
          "internalType": "address",
          "name": "to",
          "type": "address"
        },
        {
          "internalType": "uint256",
          "name": "tokenId",
          "type": "uint256"
        }
      ],
      "name": "approve",
      "outputs": [],
      "stateMutability": "nonpayable",
      "type": "function"
    },
    {
      "inputs": [
        {
          "internalType": "address",
          "name": "owner",
          "type": "address"
        }
      ],
      "name": "balanceOf",
      "outputs": [
        {
          "internalType": "uint256",
          "name": "",
          "type": "uint256"
        }
      ],
      "stateMutability": "view",
      "type": "function"
    },
    {
      "inputs": [
        {
          "internalType": "uint256",
          "name": "tokenId",
          "type": "uint256"
        }
      ],
      "name": "getApproved",
      "outputs": [
        {
          "internalType": "address",
          "name": "",
          "type": "address"
        }
      ],
      "stateMutability": "view",
      "type": "function"
    },
    {
      "inputs": [
        {
          "internalType": "uint256",
          "name": "tokenId",
          "type": "uint256"
        }
      ],
      "name": "getIpfsLink",
      "outputs": [
        {
          "internalType": "string",
          "name": "",
          "type": "string"
        }
      ],
      "stateMutability": "view",
      "type": "function"
    },
    {
      "inputs": [
        {
          "internalType": "address",
          "name": "owner",
          "type": "address"
        },
        {
          "internalType": "address",
          "name": "operator",
          "type": "address"
        }
      ],
      "name": "isApprovedForAll",
      "outputs": [
        {
          "internalType": "bool",
          "name": "",
          "type": "bool"
        }
      ],
      "stateMutability": "view",
      "type": "function"
    },
    {
      "inputs": [
        {
          "internalType": "string",
          "name": "ipfsLink",
          "type": "string"
        }
      ],
      "name": "mintANFT",
      "outputs": [],
      "stateMutability": "nonpayable",
      "type": "function"
    },
    {
      "inputs": [],
      "name": "name",
      "outputs": [
        {
          "internalType": "string",
          "name": "",
          "type": "string"
        }
      ],
      "stateMutability": "view",
      "type": "function"
    },
    {
      "inputs": [
        {
          "internalType": "uint256",
          "name": "tokenId",
          "type": "uint256"
        }
      ],
      "name": "ownerOf",
      "outputs": [
        {
          "internalType": "address",
          "name": "",
          "type": "address"
        }
      ],
      "stateMutability": "view",
      "type": "function"
    },
    {
      "inputs": [],
      "name": "promptDescription",
      "outputs": [
        {
          "internalType": "string",
          "name": "",
          "type": "string"
        }
      ],
      "stateMutability": "view",
      "type": "function"
    },
    {
      "inputs": [
        {
          "internalType": "address",
          "name": "from",
          "type": "address"
        },
        {
          "internalType": "address",
          "name": "to",
          "type": "address"
        },
        {
          "internalType": "uint256",
          "name": "tokenId",
          "type": "uint256"
        }
      ],
      "name": "safeTransferFrom",
      "outputs": [],
      "stateMutability": "nonpayable",
      "type": "function"
    },
    {
      "inputs": [
        {
          "internalType": "address",
          "name": "from",
          "type": "address"
        },
        {
          "internalType": "address",
          "name": "to",
          "type": "address"
        },
        {
          "internalType": "uint256",
          "name": "tokenId",
          "type": "uint256"
        },
        {
          "internalType": "bytes",
          "name": "data",
          "type": "bytes"
        }
      ],
      "name": "safeTransferFrom",
      "outputs": [],
      "stateMutability": "nonpayable",
      "type": "function"
    },
    {
      "inputs": [
        {
          "internalType": "address",
          "name": "operator",
          "type": "address"
        },
        {
          "internalType": "bool",
          "name": "approved",
          "type": "bool"
        }
      ],
      "name": "setApprovalForAll",
      "outputs": [],
      "stateMutability": "nonpayable",
      "type": "function"
    },
    {
      "inputs": [
        {
          "internalType": "bytes4",
          "name": "interfaceId",
          "type": "bytes4"
        }
      ],
      "name": "supportsInterface",
      "outputs": [
        {
          "internalType": "bool",
          "name": "",
          "type": "bool"
        }
      ],
      "stateMutability": "view",
      "type": "function"
    },
    {
      "inputs": [],
      "name": "symbol",
      "outputs": [
        {
          "internalType": "string",
          "name": "",
          "type": "string"
        }
      ],
      "stateMutability": "view",
      "type": "function"
    },
    {
      "inputs": [
        {
          "internalType": "uint256",
          "name": "tokenId",
          "type": "uint256"
        }
      ],
      "name": "tokenURI",
      "outputs": [
        {
          "internalType": "string",
          "name": "",
          "type": "string"
        }
      ],
      "stateMutability": "view",
      "type": "function"
    },
    {
      "inputs": [
        {
          "internalType": "address",
          "name": "from",
          "type": "address"
        },
        {
          "internalType": "address",
          "name": "to",
          "type": "address"
        },
        {
          "internalType": "uint256",
          "name": "tokenId",
          "type": "uint256"
        }
      ],
      "name": "transferFrom",
      "outputs": [],
      "stateMutability": "nonpayable",
      "type": "function"
    }
  ],
  "bytecode": "0x60806040523480156200001157600080fd5b506040518060400160405280600681526020017f416e694e465400000000000000000000000000000000000000000000000000008152506040518060400160405280600481526020017f414e46540000000000000000000000000000000000000000000000000000000081525081600090816200008f9190620004da565b508060019081620000a19190620004da565b5050506040518060600160405280602681526020016200341860269139600b9081620000ce9190620004da565b5033600d60006101000a81548173ffffffffffffffffffffffffffffffffffffffff021916908373ffffffffffffffffffffffffffffffffffffffff1602179055506040518060800160405280605d815260200162003301605d91396006600060058110620001425762000141620005c1565b5b019081620001519190620004da565b506040518060800160405280605d8152602001620032a4605d91396006600160058110620001845762000183620005c1565b5b019081620001939190620004da565b506040518060800160405280605d81526020016200343e605d91396006600260058110620001c657620001c5620005c1565b5b019081620001d59190620004da565b506040518060800160405280605d81526020016200335e605d91396006600360058110620002085762000207620005c1565b5b019081620002179190620004da565b506040518060800160405280605d8152602001620033bb605d913960066004600581106200024a5762000249620005c1565b5b019081620002599190620004da565b50620005f0565b600081519050919050565b7f4e487b7100000000000000000000000000000000000000000000000000000000600052604160045260246000fd5b7f4e487b7100000000000000000000000000000000000000000000000000000000600052602260045260246000fd5b60006002820490506001821680620002e257607f821691505b602082108103620002f857620002f76200029a565b5b50919050565b60008190508160005260206000209050919050565b60006020601f8301049050919050565b600082821b905092915050565b600060088302620003627fffffffffffffffffffffffffffffffffffffffffffffffffffffffffffffffff8262000323565b6200036e868362000323565b95508019841693508086168417925050509392505050565b6000819050919050565b6000819050919050565b6000620003bb620003b5620003af8462000386565b62000390565b62000386565b9050919050565b6000819050919050565b620003d7836200039a565b620003ef620003e682620003c2565b84845462000330565b825550505050565b600090565b62000406620003f7565b62000413818484620003cc565b505050565b5b818110156200043b576200042f600082620003fc565b60018101905062000419565b5050565b601f8211156200048a576200045481620002fe565b6200045f8462000313565b810160208510156200046f578190505b620004876200047e8562000313565b83018262000418565b50505b505050565b600082821c905092915050565b6000620004af600019846008026200048f565b1980831691505092915050565b6000620004ca83836200049c565b9150826002028217905092915050565b620004e58262000260565b67ffffffffffffffff8111156200050157620005006200026b565b5b6200050d8254620002c9565b6200051a8282856200043f565b600060209050601f8311600181146200055257600084156200053d578287015190505b620005498582620004bc565b865550620005b9565b601f1984166200056286620002fe565b60005b828110156200058c5784890151825560018201915060208501945060208101905062000565565b86831015620005ac5784890151620005a8601f8916826200049c565b8355505b6001600288020188555050505b505050505050565b7f4e487b7100000000000000000000000000000000000000000000000000000000600052603260045260246000fd5b612ca480620006006000396000f3fe608060405234801561001057600080fd5b50600436106101005760003560e01c80636352211e11610097578063a22cb46511610066578063a22cb465146102bf578063b88d4fde146102db578063c87b56dd146102f7578063e985e9c51461032757610100565b80636352211e1461022357806370a0823114610253578063953637311461028357806395d89b41146102a157610100565b806323b872dd116100d357806323b872dd1461019f5780632ce2dc2c146101bb5780633311c2aa146101d757806342842e0e1461020757610100565b806301ffc9a71461010557806306fdde0314610135578063081812fc14610153578063095ea7b314610183575b600080fd5b61011f600480360381019061011a9190611a4e565b610357565b60405161012c9190611a96565b60405180910390f35b61013d610439565b60405161014a9190611b41565b60405180910390f35b61016d60048036038101906101689190611b99565b6104cb565b60405161017a9190611c07565b60405180910390f35b61019d60048036038101906101989190611c4e565b610511565b005b6101b960048036038101906101b49190611c8e565b610628565b005b6101d560048036038101906101d09190611e16565b610688565b005b6101f160048036038101906101ec9190611b99565b6107ad565b6040516101fe9190611b41565b60405180910390f35b610221600480360381019061021c9190611c8e565b610898565b005b61023d60048036038101906102389190611b99565b6108b8565b60405161024a9190611c07565b60405180910390f35b61026d60048036038101906102689190611e5f565b61093e565b60405161027a9190611e9b565b60405180910390f35b61028b6109f5565b6040516102989190611b41565b60405180910390f35b6102a9610a87565b6040516102b69190611b41565b60405180910390f35b6102d960048036038101906102d49190611ee2565b610b19565b005b6102f560048036038101906102f09190611fc3565b610b2f565b005b610311600480360381019061030c9190611b99565b610b91565b60405161031e9190611b41565b60405180910390f35b610341600480360381019061033c9190612046565b610bf9565b60405161034e9190611a96565b60405180910390f35b60007f80ac58cd000000000000000000000000000000000000000000000000000000007bffffffffffffffffffffffffffffffffffffffffffffffffffffffff1916827bffffffffffffffffffffffffffffffffffffffffffffffffffffffff1916148061042257507f5b5e139f000000000000000000000000000000000000000000000000000000007bffffffffffffffffffffffffffffffffffffffffffffffffffffffff1916827bffffffffffffffffffffffffffffffffffffffffffffffffffffffff1916145b80610432575061043182610c8d565b5b9050919050565b606060008054610448906120b5565b80601f0160208091040260200160405190810160405280929190818152602001828054610474906120b5565b80156104c15780601f10610496576101008083540402835291602001916104c1565b820191906000526020600020905b8154815290600101906020018083116104a457829003601f168201915b5050505050905090565b60006104d682610cf7565b6004600083815260200190815260200160002060009054906101000a900473ffffffffffffffffffffffffffffffffffffffff169050919050565b600061051c826108b8565b90508073ffffffffffffffffffffffffffffffffffffffff168373ffffffffffffffffffffffffffffffffffffffff160361058c576040517f08c379a000000000000000000000000000000000000000000000000000000000815260040161058390612158565b60405180910390fd5b8073ffffffffffffffffffffffffffffffffffffffff166105ab610d42565b73ffffffffffffffffffffffffffffffffffffffff1614806105da57506105d9816105d4610d42565b610bf9565b5b610619576040517f08c379a0000000000000000000000000000000000000000000000000000000008152600401610610906121ea565b60405180910390fd5b6106238383610d4a565b505050565b610639610633610d42565b82610e03565b610678576040517f08c379a000000000000000000000000000000000000000000000000000000000815260040161066f9061227c565b60405180910390fd5b610683838383610e98565b505050565b600d60009054906101000a900473ffffffffffffffffffffffffffffffffffffffff1673ffffffffffffffffffffffffffffffffffffffff163373ffffffffffffffffffffffffffffffffffffffff1614610718576040517f08c379a000000000000000000000000000000000000000000000000000000000815260040161070f906122e8565b60405180910390fd5b6005600c541061075d576040517f08c379a000000000000000000000000000000000000000000000000000000000815260040161075490612354565b60405180910390fd5b6000600c54905061076e3382611191565b816006826005811061078357610782612374565b5b019081610790919061254f565b50600c60008154809291906107a490612650565b91905055505050565b6060600c5482106107f3576040517f08c379a00000000000000000000000000000000000000000000000000000000081526004016107ea906126e4565b60405180910390fd5b6006826005811061080757610806612374565b5b018054610813906120b5565b80601f016020809104026020016040519081016040528092919081815260200182805461083f906120b5565b801561088c5780601f106108615761010080835404028352916020019161088c565b820191906000526020600020905b81548152906001019060200180831161086f57829003601f168201915b50505050509050919050565b6108b383838360405180602001604052806000815250610b2f565b505050565b6000806108c4836113ae565b9050600073ffffffffffffffffffffffffffffffffffffffff168173ffffffffffffffffffffffffffffffffffffffff1603610935576040517f08c379a000000000000000000000000000000000000000000000000000000000815260040161092c90612750565b60405180910390fd5b80915050919050565b60008073ffffffffffffffffffffffffffffffffffffffff168273ffffffffffffffffffffffffffffffffffffffff16036109ae576040517f08c379a00000000000000000000000000000000000000000000000000000000081526004016109a5906127e2565b60405180910390fd5b600360008373ffffffffffffffffffffffffffffffffffffffff1673ffffffffffffffffffffffffffffffffffffffff168152602001908152602001600020549050919050565b6060600b8054610a04906120b5565b80601f0160208091040260200160405190810160405280929190818152602001828054610a30906120b5565b8015610a7d5780601f10610a5257610100808354040283529160200191610a7d565b820191906000526020600020905b815481529060010190602001808311610a6057829003601f168201915b5050505050905090565b606060018054610a96906120b5565b80601f0160208091040260200160405190810160405280929190818152602001828054610ac2906120b5565b8015610b0f5780601f10610ae457610100808354040283529160200191610b0f565b820191906000526020600020905b815481529060010190602001808311610af257829003601f168201915b5050505050905090565b610b2b610b24610d42565b83836113eb565b5050565b610b40610b3a610d42565b83610e03565b610b7f576040517f08c379a0000000000000000000000000000000000000000000000000000000008152600401610b769061227c565b60405180910390fd5b610b8b84848484611557565b50505050565b6060610b9c82610cf7565b6000610ba66115b3565b90506000815111610bc65760405180602001604052806000815250610bf1565b80610bd0846115ca565b604051602001610be192919061283e565b6040516020818303038152906040525b915050919050565b6000600560008473ffffffffffffffffffffffffffffffffffffffff1673ffffffffffffffffffffffffffffffffffffffff16815260200190815260200160002060008373ffffffffffffffffffffffffffffffffffffffff1673ffffffffffffffffffffffffffffffffffffffff16815260200190815260200160002060009054906101000a900460ff16905092915050565b60007f01ffc9a7000000000000000000000000000000000000000000000000000000007bffffffffffffffffffffffffffffffffffffffffffffffffffffffff1916827bffffffffffffffffffffffffffffffffffffffffffffffffffffffff1916149050919050565b610d0081611698565b610d3f576040517f08c379a0000000000000000000000000000000000000000000000000000000008152600401610d3690612750565b60405180910390fd5b50565b600033905090565b816004600083815260200190815260200160002060006101000a81548173ffffffffffffffffffffffffffffffffffffffff021916908373ffffffffffffffffffffffffffffffffffffffff160217905550808273ffffffffffffffffffffffffffffffffffffffff16610dbd836108b8565b73ffffffffffffffffffffffffffffffffffffffff167f8c5be1e5ebec7d5bd14f71427d1e84f3dd0314c0f7b2291e5b200ac8c7c3b92560405160405180910390a45050565b600080610e0f836108b8565b90508073ffffffffffffffffffffffffffffffffffffffff168473ffffffffffffffffffffffffffffffffffffffff161480610e515750610e508185610bf9565b5b80610e8f57508373ffffffffffffffffffffffffffffffffffffffff16610e77846104cb565b73ffffffffffffffffffffffffffffffffffffffff16145b91505092915050565b8273ffffffffffffffffffffffffffffffffffffffff16610eb8826108b8565b73ffffffffffffffffffffffffffffffffffffffff1614610f0e576040517f08c379a0000000000000000000000000000000000000000000000000000000008152600401610f05906128d4565b60405180910390fd5b600073ffffffffffffffffffffffffffffffffffffffff168273ffffffffffffffffffffffffffffffffffffffff1603610f7d576040517f08c379a0000000000000000000000000000000000000000000000000000000008152600401610f7490612966565b60405180910390fd5b610f8a83838360016116d9565b8273ffffffffffffffffffffffffffffffffffffffff16610faa826108b8565b73ffffffffffffffffffffffffffffffffffffffff1614611000576040517f08c379a0000000000000000000000000000000000000000000000000000000008152600401610ff7906128d4565b60405180910390fd5b6004600082815260200190815260200160002060006101000a81549073ffffffffffffffffffffffffffffffffffffffff02191690556001600360008573ffffffffffffffffffffffffffffffffffffffff1673ffffffffffffffffffffffffffffffffffffffff168152602001908152602001600020600082825403925050819055506001600360008473ffffffffffffffffffffffffffffffffffffffff1673ffffffffffffffffffffffffffffffffffffffff16815260200190815260200160002060008282540192505081905550816002600083815260200190815260200160002060006101000a81548173ffffffffffffffffffffffffffffffffffffffff021916908373ffffffffffffffffffffffffffffffffffffffff160217905550808273ffffffffffffffffffffffffffffffffffffffff168473ffffffffffffffffffffffffffffffffffffffff167fddf252ad1be2c89b69c2b068fc378daa952ba7f163c4a11628f55a4df523b3ef60405160405180910390a461118c83838360016116df565b505050565b600073ffffffffffffffffffffffffffffffffffffffff168273ffffffffffffffffffffffffffffffffffffffff1603611200576040517f08c379a00000000000000000000000000000000000000000000000000000000081526004016111f7906129d2565b60405180910390fd5b61120981611698565b15611249576040517f08c379a000000000000000000000000000000000000000000000000000000000815260040161124090612a3e565b60405180910390fd5b6112576000838360016116d9565b61126081611698565b156112a0576040517f08c379a000000000000000000000000000000000000000000000000000000000815260040161129790612a3e565b60405180910390fd5b6001600360008473ffffffffffffffffffffffffffffffffffffffff1673ffffffffffffffffffffffffffffffffffffffff16815260200190815260200160002060008282540192505081905550816002600083815260200190815260200160002060006101000a81548173ffffffffffffffffffffffffffffffffffffffff021916908373ffffffffffffffffffffffffffffffffffffffff160217905550808273ffffffffffffffffffffffffffffffffffffffff16600073ffffffffffffffffffffffffffffffffffffffff167fddf252ad1be2c89b69c2b068fc378daa952ba7f163c4a11628f55a4df523b3ef60405160405180910390a46113aa6000838360016116df565b5050565b60006002600083815260200190815260200160002060009054906101000a900473ffffffffffffffffffffffffffffffffffffffff169050919050565b8173ffffffffffffffffffffffffffffffffffffffff168373ffffffffffffffffffffffffffffffffffffffff1603611459576040517f08c379a000000000000000000000000000000000000000000000000000000000815260040161145090612aaa565b60405180910390fd5b80600560008573ffffffffffffffffffffffffffffffffffffffff1673ffffffffffffffffffffffffffffffffffffffff16815260200190815260200160002060008473ffffffffffffffffffffffffffffffffffffffff1673ffffffffffffffffffffffffffffffffffffffff16815260200190815260200160002060006101000a81548160ff0219169083151502179055508173ffffffffffffffffffffffffffffffffffffffff168373ffffffffffffffffffffffffffffffffffffffff167f17307eab39ab6107e8899845ad3d59bd9653f200f220920489ca2b5937696c318360405161154a9190611a96565b60405180910390a3505050565b611562848484610e98565b61156e848484846116e5565b6115ad576040517f08c379a00000000000000000000000000000000000000000000000000000000081526004016115a490612b3c565b60405180910390fd5b50505050565b606060405180602001604052806000815250905090565b6060600060016115d98461186c565b01905060008167ffffffffffffffff8111156115f8576115f7611ceb565b5b6040519080825280601f01601f19166020018201604052801561162a5781602001600182028036833780820191505090505b509050600082602001820190505b60011561168d578080600190039150507f3031323334353637383961626364656600000000000000000000000000000000600a86061a8153600a858161168157611680612b5c565b5b04945060008503611638575b819350505050919050565b60008073ffffffffffffffffffffffffffffffffffffffff166116ba836113ae565b73ffffffffffffffffffffffffffffffffffffffff1614159050919050565b50505050565b50505050565b60006117068473ffffffffffffffffffffffffffffffffffffffff166119bf565b1561185f578373ffffffffffffffffffffffffffffffffffffffff1663150b7a0261172f610d42565b8786866040518563ffffffff1660e01b81526004016117519493929190612be0565b6020604051808303816000875af192505050801561178d57506040513d601f19601f8201168201806040525081019061178a9190612c41565b60015b61180f573d80600081146117bd576040519150601f19603f3d011682016040523d82523d6000602084013e6117c2565b606091505b506000815103611807576040517f08c379a00000000000000000000000000000000000000000000000000000000081526004016117fe90612b3c565b60405180910390fd5b805181602001fd5b63150b7a0260e01b7bffffffffffffffffffffffffffffffffffffffffffffffffffffffff1916817bffffffffffffffffffffffffffffffffffffffffffffffffffffffff191614915050611864565b600190505b949350505050565b600080600090507a184f03e93ff9f4daa797ed6e38ed64bf6a1f01000000000000000083106118ca577a184f03e93ff9f4daa797ed6e38ed64bf6a1f01000000000000000083816118c0576118bf612b5c565b5b0492506040810190505b6d04ee2d6d415b85acef81000000008310611907576d04ee2d6d415b85acef810000000083816118fd576118fc612b5c565b5b0492506020810190505b662386f26fc10000831061193657662386f26fc10000838161192c5761192b612b5c565b5b0492506010810190505b6305f5e100831061195f576305f5e100838161195557611954612b5c565b5b0492506008810190505b612710831061198457612710838161197a57611979612b5c565b5b0492506004810190505b606483106119a7576064838161199d5761199c612b5c565b5b0492506002810190505b600a83106119b6576001810190505b80915050919050565b6000808273ffffffffffffffffffffffffffffffffffffffff163b119050919050565b6000604051905090565b600080fd5b600080fd5b60007fffffffff0000000000000000000000000000000000000000000000000000000082169050919050565b611a2b816119f6565b8114611a3657600080fd5b50565b600081359050611a4881611a22565b92915050565b600060208284031215611a6457611a636119ec565b5b6000611a7284828501611a39565b91505092915050565b60008115159050919050565b611a9081611a7b565b82525050565b6000602082019050611aab6000830184611a87565b92915050565b600081519050919050565b600082825260208201905092915050565b60005b83811015611aeb578082015181840152602081019050611ad0565b60008484015250505050565b6000601f19601f8301169050919050565b6000611b1382611ab1565b611b1d8185611abc565b9350611b2d818560208601611acd565b611b3681611af7565b840191505092915050565b60006020820190508181036000830152611b5b8184611b08565b905092915050565b6000819050919050565b611b7681611b63565b8114611b8157600080fd5b50565b600081359050611b9381611b6d565b92915050565b600060208284031215611baf57611bae6119ec565b5b6000611bbd84828501611b84565b91505092915050565b600073ffffffffffffffffffffffffffffffffffffffff82169050919050565b6000611bf182611bc6565b9050919050565b611c0181611be6565b82525050565b6000602082019050611c1c6000830184611bf8565b92915050565b611c2b81611be6565b8114611c3657600080fd5b50565b600081359050611c4881611c22565b92915050565b60008060408385031215611c6557611c646119ec565b5b6000611c7385828601611c39565b9250506020611c8485828601611b84565b9150509250929050565b600080600060608486031215611ca757611ca66119ec565b5b6000611cb586828701611c39565b9350506020611cc686828701611c39565b9250506040611cd786828701611b84565b9150509250925092565b600080fd5b600080fd5b7f4e487b7100000000000000000000000000000000000000000000000000000000600052604160045260246000fd5b611d2382611af7565b810181811067ffffffffffffffff82111715611d4257611d41611ceb565b5b80604052505050565b6000611d556119e2565b9050611d618282611d1a565b919050565b600067ffffffffffffffff821115611d8157611d80611ceb565b5b611d8a82611af7565b9050602081019050919050565b82818337600083830152505050565b6000611db9611db484611d66565b611d4b565b905082815260208101848484011115611dd557611dd4611ce6565b5b611de0848285611d97565b509392505050565b600082601f830112611dfd57611dfc611ce1565b5b8135611e0d848260208601611da6565b91505092915050565b600060208284031215611e2c57611e2b6119ec565b5b600082013567ffffffffffffffff811115611e4a57611e496119f1565b5b611e5684828501611de8565b91505092915050565b600060208284031215611e7557611e746119ec565b5b6000611e8384828501611c39565b91505092915050565b611e9581611b63565b82525050565b6000602082019050611eb06000830184611e8c565b92915050565b611ebf81611a7b565b8114611eca57600080fd5b50565b600081359050611edc81611eb6565b92915050565b60008060408385031215611ef957611ef86119ec565b5b6000611f0785828601611c39565b9250506020611f1885828601611ecd565b9150509250929050565b600067ffffffffffffffff821115611f3d57611f3c611ceb565b5b611f4682611af7565b9050602081019050919050565b6000611f66611f6184611f22565b611d4b565b905082815260208101848484011115611f8257611f81611ce6565b5b611f8d848285611d97565b509392505050565b600082601f830112611faa57611fa9611ce1565b5b8135611fba848260208601611f53565b91505092915050565b60008060008060808587031215611fdd57611fdc6119ec565b5b6000611feb87828801611c39565b9450506020611ffc87828801611c39565b935050604061200d87828801611b84565b925050606085013567ffffffffffffffff81111561202e5761202d6119f1565b5b61203a87828801611f95565b91505092959194509250565b6000806040838503121561205d5761205c6119ec565b5b600061206b85828601611c39565b925050602061207c85828601611c39565b9150509250929050565b7f4e487b7100000000000000000000000000000000000000000000000000000000600052602260045260246000fd5b600060028204905060018216806120cd57607f821691505b6020821081036120e0576120df612086565b5b50919050565b7f4552433732313a20617070726f76616c20746f2063757272656e74206f776e6560008201527f7200000000000000000000000000000000000000000000000000000000000000602082015250565b6000612142602183611abc565b915061214d826120e6565b604082019050919050565b6000602082019050818103600083015261217181612135565b9050919050565b7f4552433732313a20617070726f76652063616c6c6572206973206e6f7420746f60008201527f6b656e206f776e6572206f7220617070726f76656420666f7220616c6c000000602082015250565b60006121d4603d83611abc565b91506121df82612178565b604082019050919050565b60006020820190508181036000830152612203816121c7565b9050919050565b7f4552433732313a2063616c6c6572206973206e6f7420746f6b656e206f776e6560008201527f72206f7220617070726f76656400000000000000000000000000000000000000602082015250565b6000612266602d83611abc565b91506122718261220a565b604082019050919050565b6000602082019050818103600083015261229581612259565b9050919050565b7f43616c6c6572206973206e6f7420746865206f776e6572000000000000000000600082015250565b60006122d2601783611abc565b91506122dd8261229c565b602082019050919050565b60006020820190508181036000830152612301816122c5565b9050919050565b7f416c6c204e4654732068617665206265656e206d696e7465642e000000000000600082015250565b600061233e601a83611abc565b915061234982612308565b602082019050919050565b6000602082019050818103600083015261236d81612331565b9050919050565b7f4e487b7100000000000000000000000000000000000000000000000000000000600052603260045260246000fd5b60008190508160005260206000209050919050565b60006020601f8301049050919050565b600082821b905092915050565b6000600883026124057fffffffffffffffffffffffffffffffffffffffffffffffffffffffffffffffff826123c8565b61240f86836123c8565b95508019841693508086168417925050509392505050565b6000819050919050565b600061244c61244761244284611b63565b612427565b611b63565b9050919050565b6000819050919050565b61246683612431565b61247a61247282612453565b8484546123d5565b825550505050565b600090565b61248f612482565b61249a81848461245d565b505050565b5b818110156124be576124b3600082612487565b6001810190506124a0565b5050565b601f821115612503576124d4816123a3565b6124dd846123b8565b810160208510156124ec578190505b6125006124f8856123b8565b83018261249f565b50505b505050565b600082821c905092915050565b600061252660001984600802612508565b1980831691505092915050565b600061253f8383612515565b9150826002028217905092915050565b61255882611ab1565b67ffffffffffffffff81111561257157612570611ceb565b5b61257b82546120b5565b6125868282856124c2565b600060209050601f8311600181146125b957600084156125a7578287015190505b6125b18582612533565b865550612619565b601f1984166125c7866123a3565b60005b828110156125ef578489015182556001820191506020850194506020810190506125ca565b8683101561260c5784890151612608601f891682612515565b8355505b6001600288020188555050505b505050505050565b7f4e487b7100000000000000000000000000000000000000000000000000000000600052601160045260246000fd5b600061265b82611b63565b91507fffffffffffffffffffffffffffffffffffffffffffffffffffffffffffffffff820361268d5761268c612621565b5b600182019050919050565b7f546f6b656e20494420646f6573206e6f74206578697374000000000000000000600082015250565b60006126ce601783611abc565b91506126d982612698565b602082019050919050565b600060208201905081810360008301526126fd816126c1565b9050919050565b7f4552433732313a20696e76616c696420746f6b656e2049440000000000000000600082015250565b600061273a601883611abc565b915061274582612704565b602082019050919050565b600060208201905081810360008301526127698161272d565b9050919050565b7f4552433732313a2061646472657373207a65726f206973206e6f74206120766160008201527f6c6964206f776e65720000000000000000000000000000000000000000000000602082015250565b60006127cc602983611abc565b91506127d782612770565b604082019050919050565b600060208201905081810360008301526127fb816127bf565b9050919050565b600081905092915050565b600061281882611ab1565b6128228185612802565b9350612832818560208601611acd565b80840191505092915050565b600061284a828561280d565b9150612856828461280d565b91508190509392505050565b7f4552433732313a207472616e736665722066726f6d20696e636f72726563742060008201527f6f776e6572000000000000000000000000000000000000000000000000000000602082015250565b60006128be602583611abc565b91506128c982612862565b604082019050919050565b600060208201905081810360008301526128ed816128b1565b9050919050565b7f4552433732313a207472616e7366657220746f20746865207a65726f2061646460008201527f7265737300000000000000000000000000000000000000000000000000000000602082015250565b6000612950602483611abc565b915061295b826128f4565b604082019050919050565b6000602082019050818103600083015261297f81612943565b9050919050565b7f4552433732313a206d696e7420746f20746865207a65726f2061646472657373600082015250565b60006129bc602083611abc565b91506129c782612986565b602082019050919050565b600060208201905081810360008301526129eb816129af565b9050919050565b7f4552433732313a20746f6b656e20616c7265616479206d696e74656400000000600082015250565b6000612a28601c83611abc565b9150612a33826129f2565b602082019050919050565b60006020820190508181036000830152612a5781612a1b565b9050919050565b7f4552433732313a20617070726f766520746f2063616c6c657200000000000000600082015250565b6000612a94601983611abc565b9150612a9f82612a5e565b602082019050919050565b60006020820190508181036000830152612ac381612a87565b9050919050565b7f4552433732313a207472616e7366657220746f206e6f6e20455243373231526560008201527f63656976657220696d706c656d656e7465720000000000000000000000000000602082015250565b6000612b26603283611abc565b9150612b3182612aca565b604082019050919050565b60006020820190508181036000830152612b5581612b19565b9050919050565b7f4e487b7100000000000000000000000000000000000000000000000000000000600052601260045260246000fd5b600081519050919050565b600082825260208201905092915050565b6000612bb282612b8b565b612bbc8185612b96565b9350612bcc818560208601611acd565b612bd581611af7565b840191505092915050565b6000608082019050612bf56000830187611bf8565b612c026020830186611bf8565b612c0f6040830185611e8c565b8181036060830152612c218184612ba7565b905095945050505050565b600081519050612c3b81611a22565b92915050565b600060208284031215612c5757612c566119ec565b5b6000612c6584828501612c2c565b9150509291505056fea26469706673582212202f9f8f7bb27421af156ea2d4cb10af54586114bd3d5a4c6dcb38e8939c94795764736f6c6343000812003368747470733a2f2f676174657761792e70696e6174612e636c6f75642f697066732f516d646535383347586e4248564373774155534646337a6546354a6654624e37354663484454383875726e3443392f494d472d383335302e4a504768747470733a2f2f676174657761792e70696e6174612e636c6f75642f697066732f516d646535383347586e4248564373774155534646337a6546354a6654624e37354663484454383875726e3443392f494d472d383334362e4a504768747470733a2f2f676174657761792e70696e6174612e636c6f75642f697066732f516d646535383347586e4248564373774155534646337a6546354a6654624e37354663484454383875726e3443392f494d472d383335352e4a504768747470733a2f2f676174657761792e70696e6174612e636c6f75642f697066732f516d646535383347586e4248564373774155534646337a6546354a6654624e37354663484454383875726e3443392f494d472d383335372e4a5047496e6469616e20616e696d6520636861726163746572206c6f6f6b73206c696b6520676f6a6f68747470733a2f2f676174657761792e70696e6174612e636c6f75642f697066732f516d646535383347586e4248564373774155534646337a6546354a6654624e37354663484454383875726e3443392f494d472d383335312e4a5047",
  "linkReferences": {},
  "deployedLinkReferences": {}
}